{
    "contractName": "TokenSharing",
    "abi": [
        {
            "inputs": [
                {
                    "internalType": "address",
                    "name": "owner",
                    "type": "address"
                },
                {
                    "internalType": "address[]",
                    "name": "tokenAddresses",
                    "type": "address[]"
                }
            ],
            "stateMutability": "nonpayable",
            "type": "constructor"
        },
        {
            "anonymous": false,
            "inputs": [
                {
                    "components": [
                        {
                            "internalType": "address",
                            "name": "author",
                            "type": "address"
                        },
                        {
                            "components": [
                                {
                                    "internalType": "uint64",
                                    "name": "shares",
                                    "type": "uint64"
                                },
                                {
                                    "internalType": "address",
                                    "name": "wallet",
                                    "type": "address"
                                },
                                {
                                    "internalType": "bool",
                                    "name": "canVote",
                                    "type": "bool"
                                }
                            ],
                            "internalType": "struct Shareholder[]",
                            "name": "newShareholders",
                            "type": "tuple[]"
                        },
                        {
                            "internalType": "address[]",
                            "name": "voters",
                            "type": "address[]"
                        },
                        {
                            "internalType": "uint256",
                            "name": "date",
                            "type": "uint256"
                        }
                    ],
                    "indexed": false,
                    "internalType": "struct Proposal",
                    "name": "",
                    "type": "tuple"
                }
            ],
            "name": "NewProposal",
            "type": "event"
        },
        {
            "anonymous": false,
            "inputs": [
                {
                    "components": [
                        {
                            "internalType": "uint64",
                            "name": "shares",
                            "type": "uint64"
                        },
                        {
                            "internalType": "address",
                            "name": "wallet",
                            "type": "address"
                        },
                        {
                            "internalType": "bool",
                            "name": "canVote",
                            "type": "bool"
                        }
                    ],
                    "indexed": false,
                    "internalType": "struct Shareholder",
                    "name": "",
                    "type": "tuple"
                },
                {
                    "indexed": false,
                    "internalType": "uint256",
                    "name": "",
                    "type": "uint256"
                }
            ],
            "name": "Transfer",
            "type": "event"
        },
        {
            "inputs": [
                {
                    "internalType": "uint256",
                    "name": "proposalId",
                    "type": "uint256"
                }
            ],
            "name": "applyProposal",
            "outputs": [],
            "stateMutability": "nonpayable",
            "type": "function"
        },
        {
            "inputs": [
                {
                    "internalType": "uint256",
                    "name": "proposalId",
                    "type": "uint256"
                }
            ],
            "name": "approveProposal",
            "outputs": [],
            "stateMutability": "nonpayable",
            "type": "function"
        },
        {
            "inputs": [
                {
                    "components": [
                        {
                            "internalType": "uint64",
                            "name": "shares",
                            "type": "uint64"
                        },
                        {
                            "internalType": "address",
                            "name": "wallet",
                            "type": "address"
                        },
                        {
                            "internalType": "bool",
                            "name": "canVote",
                            "type": "bool"
                        }
                    ],
                    "internalType": "struct Shareholder[]",
                    "name": "newShareholders",
                    "type": "tuple[]"
                }
            ],
            "name": "createProposal",
            "outputs": [
                {
                    "internalType": "uint256",
                    "name": "",
                    "type": "uint256"
                }
            ],
            "stateMutability": "nonpayable",
            "type": "function"
        },
        {
            "inputs": [
                {
                    "internalType": "uint256",
                    "name": "proposalId",
                    "type": "uint256"
                }
            ],
            "name": "deleteProposal",
            "outputs": [
                {
                    "components": [
                        {
                            "internalType": "address",
                            "name": "author",
                            "type": "address"
                        },
                        {
                            "components": [
                                {
                                    "internalType": "uint64",
                                    "name": "shares",
                                    "type": "uint64"
                                },
                                {
                                    "internalType": "address",
                                    "name": "wallet",
                                    "type": "address"
                                },
                                {
                                    "internalType": "bool",
                                    "name": "canVote",
                                    "type": "bool"
                                }
                            ],
                            "internalType": "struct Shareholder[]",
                            "name": "newShareholders",
                            "type": "tuple[]"
                        },
                        {
                            "internalType": "address[]",
                            "name": "voters",
                            "type": "address[]"
                        },
                        {
                            "internalType": "uint256",
                            "name": "date",
                            "type": "uint256"
                        }
                    ],
                    "internalType": "struct Proposal",
                    "name": "",
                    "type": "tuple"
                }
            ],
            "stateMutability": "nonpayable",
            "type": "function"
        },
        {
            "inputs": [],
            "name": "distributeAllTokens",
            "outputs": [],
            "stateMutability": "nonpayable",
            "type": "function"
        },
        {
            "inputs": [
                {
                    "internalType": "contract ERC20",
                    "name": "token",
                    "type": "address"
                }
            ],
            "name": "distributeToken",
            "outputs": [],
            "stateMutability": "nonpayable",
            "type": "function"
        },
        {
            "inputs": [
                {
                    "internalType": "uint256",
                    "name": "proposalId",
                    "type": "uint256"
                }
            ],
            "name": "getProposal",
            "outputs": [
                {
                    "components": [
                        {
                            "internalType": "address",
                            "name": "author",
                            "type": "address"
                        },
                        {
                            "components": [
                                {
                                    "internalType": "uint64",
                                    "name": "shares",
                                    "type": "uint64"
                                },
                                {
                                    "internalType": "address",
                                    "name": "wallet",
                                    "type": "address"
                                },
                                {
                                    "internalType": "bool",
                                    "name": "canVote",
                                    "type": "bool"
                                }
                            ],
                            "internalType": "struct Shareholder[]",
                            "name": "newShareholders",
                            "type": "tuple[]"
                        },
                        {
                            "internalType": "address[]",
                            "name": "voters",
                            "type": "address[]"
                        },
                        {
                            "internalType": "uint256",
                            "name": "date",
                            "type": "uint256"
                        }
                    ],
                    "internalType": "struct Proposal",
                    "name": "",
                    "type": "tuple"
                }
            ],
            "stateMutability": "view",
            "type": "function"
        },
        {
            "inputs": [],
            "name": "getShareholders",
            "outputs": [
                {
                    "components": [
                        {
                            "internalType": "uint64",
                            "name": "shares",
                            "type": "uint64"
                        },
                        {
                            "internalType": "address",
                            "name": "wallet",
                            "type": "address"
                        },
                        {
                            "internalType": "bool",
                            "name": "canVote",
                            "type": "bool"
                        }
                    ],
                    "internalType": "struct Shareholder[]",
                    "name": "",
                    "type": "tuple[]"
                }
            ],
            "stateMutability": "view",
            "type": "function"
        }
    ],
    "bytecode": "60806040523480156200001157600080fd5b5060405162002038380380620020388339810160408190526200003491620004a9565b60005b8151811015620000b45760008282815181106200006457634e487b7160e01b600052603260045260246000fd5b60209081029190910181015182546001810184556000938452919092200180546001600160a01b0319166001600160a01b0390921691909117905580620000ab81620005ae565b91505062000037565b50604080516001808252818301909252600091816020015b6040805160608101825260008082526020808301829052928201528252600019909201910181620000cc579050509050604051806060016040528060646001600160401b03168152602001846001600160a01b0316815260200160011515815250816000815181106200014f57634e487b7160e01b600052603260045260246000fd5b60209081029190910101526200016681426200016f565b505050620005f8565b60005b6005548110156200023657600060058281548110620001a157634e487b7160e01b600052603260045260246000fd5b60009182526020808320909101546001600160a01b0368010000000000000000909104168083526004909152604090912080546001600160e81b03191690556005805491925090839081106200020757634e487b7160e01b600052603260045260246000fd5b600091825260209091200180546001600160e81b031916905550806200022d81620005ae565b91505062000172565b5060005b8251811015620003615760008382815181106200026757634e487b7160e01b600052603260045260246000fd5b60209081029190910181015180820180516001600160a01b0390811660009081526004909452604080852084518154855193870180511515600160e01b90810260ff60e01b1996881668010000000000000000908102600160401b600160e01b03196001600160401b039788166001600160401b031997881617811691909117891692909217909655600580546001810182559b5298517f036b6384b5eca791c62761152d0c79bb0604c104a5fb6f4eb0703f3154bb3db0909a01805498519251151590910291909616909302979091169416939093179093169390931790911617905550806200035881620005ae565b9150506200023a565b506200036d8262000382565b6002556200037b82620003f4565b6003555050565b600080805b8351811015620003eb57838181518110620003b257634e487b7160e01b600052603260045260246000fd5b6020026020010151600001516001600160401b031682620003d4919062000593565b915080620003e281620005ae565b91505062000387565b5090505b919050565b600080805b8351811015620003eb578381815181106200042457634e487b7160e01b600052603260045260246000fd5b602002602001015160400151156200047c578381815181106200045757634e487b7160e01b600052603260045260246000fd5b6020026020010151600001516001600160401b03168262000479919062000593565b91505b806200048881620005ae565b915050620003f9565b80516001600160a01b0381168114620003ef57600080fd5b60008060408385031215620004bc578182fd5b620004c78362000491565b602084810151919350906001600160401b0380821115620004e6578384fd5b818601915086601f830112620004fa578384fd5b8151818111156200050f576200050f620005e2565b838102604051601f19603f83011681018181108582111715620005365762000536620005e2565b604052828152858101935084860182860187018b101562000555578788fd5b8795505b8386101562000582576200056d8162000491565b85526001959095019493860193860162000559565b508096505050505050509250929050565b60008219821115620005a957620005a9620005cc565b500190565b6000600019821415620005c557620005c5620005cc565b5060010190565b634e487b7160e01b600052601160045260246000fd5b634e487b7160e01b600052604160045260246000fd5b611a3080620006086000396000f3fe608060405234801561001057600080fd5b50600436106100885760003560e01c806386d740371161005b57806386d74037146100e857806398951b56146100fb578063a9c225fe1461010e578063c7f758a81461012f57610088565b80631e3906071461008d5780632917f66b146100a257806341ca641e146100aa5780638259d553146100c8575b600080fd5b6100a061009b366004611649565b610142565b005b6100a0610471565b6100b26104d1565b6040516100bf9190611720565b60405180910390f35b6100db6100d6366004611649565b61055d565b6040516100bf91906117ab565b6100a06100f636600461162d565b6107ee565b6100a0610109366004611649565b610a12565b61012161011c366004611515565b610b74565b6040519081526020016100bf565b6100db61013d366004611649565b610eee565b33600090815260046020526040902054600160e01b900460ff166101815760405162461bcd60e51b815260040161017890611760565b60405180910390fd5b60065481106101a25760405162461bcd60e51b815260040161017890611733565b6000600682815481106101c557634e487b7160e01b600052603260045260246000fd5b6000918252602090912060049091020180549091506001600160a01b03166101ff5760405162461bcd60e51b815260040161017890611733565b6001548160030154116102695760405162461bcd60e51b815260206004820152602c60248201527f546f6f206f6c642070726f706f73616c2061206e6577657220697320616c726560448201526b30b23c9030b8383634b2b21760a11b6064820152608401610178565b6040805160808101825282546001600160a01b03168152600183018054835160208281028201810190955281815261038194869381860193909160009084015b8282101561030857600084815260209081902060408051606081018252918501546001600160401b0381168352600160401b81046001600160a01b031683850152600160e01b900460ff161515908201528252600190920191016102a9565b5050505081526020016002820180548060200260200160405190810160405280929190818152602001828054801561036957602002820191906000526020600020905b81546001600160a01b0316815260019091019060200180831161034b575b50505050508152602001600382015481525050611097565b6103dd5760405162461bcd60e51b815260206004820152602760248201527f5468652070726f706f73616c20686173206e6f74206265656e20617070726f7660448201526632b2103cb2ba1760c91b6064820152608401610178565b61046d81600101805480602002602001604051908101604052809291908181526020016000905b8282101561046357600084815260209081902060408051606081018252918501546001600160401b0381168352600160401b81046001600160a01b031683850152600160e01b900460ff16151590820152825260019092019101610404565b5050505042611148565b5050565b60005b6000548110156104ce576104bc600082815481106104a257634e487b7160e01b600052603260045260246000fd5b6000918252602090912001546001600160a01b03166107ee565b806104c681611990565b915050610474565b50565b60606005805480602002602001604051908101604052809291908181526020016000905b8282101561055457600084815260209081902060408051606081018252918501546001600160401b0381168352600160401b81046001600160a01b031683850152600160e01b900460ff161515908201528252600190920191016104f5565b50505050905090565b610591604051806080016040528060006001600160a01b031681526020016060815260200160608152602001600081525090565b6000600683815481106105b457634e487b7160e01b600052603260045260246000fd5b6000918252602080832060408051608081018252600490940290910180546001600160a01b0316845260018101805483518186028101860190945280845294959194868501949192909184015b8282101561066057600084815260209081902060408051606081018252918501546001600160401b0381168352600160401b81046001600160a01b031683850152600160e01b900460ff16151590820152825260019092019101610601565b505050508152602001600282018054806020026020016040519081016040528092919081815260200182805480156106c157602002820191906000526020600020905b81546001600160a01b031681526001909101906020018083116106a3575b50505091835250506003919091015460209091015280519091506001600160a01b03166107005760405162461bcd60e51b815260040161017890611733565b80516001600160a01b031633148061071d57506001548160600151105b6107845760405162461bcd60e51b815260206004820152603260248201527f596f7520617265206e6f7420617574686f72697a656420746f2064656c657465604482015271103a343290383937b837b9b0b6103cb2ba1760711b6064820152608401610178565b600683815481106107a557634e487b7160e01b600052603260045260246000fd5b60009182526020822060049091020180546001600160a01b0319168155906107d06001830182611440565b6107de60028301600061145e565b5060006003919091015592915050565b6040516370a0823160e01b81523060048201526000906001600160a01b038316906370a082319060240160206040518083038186803b15801561083057600080fd5b505afa158015610844573d6000803e3d6000fd5b505050506040513d601f19601f820116820180604052508101906108689190611661565b905060005b600554811015610a0d5760006005828154811061089a57634e487b7160e01b600052603260045260246000fd5b600091825260208083206040805160608101825293909101546001600160401b038116808552600160401b82046001600160a01b031693850193909352600160e01b900460ff161515908301526002549193506108f7919061193a565b90506000610905828661195a565b60208401516040516323b872dd60e01b81523060048201526001600160a01b039182166024820152604481018390529192508716906323b872dd90606401602060405180830381600087803b15801561095d57600080fd5b505af1158015610971573d6000803e3d6000fd5b505050506040513d601f19601f82011682018060405250810190610995919061160a565b506040805184516001600160401b031681526020808601516001600160a01b031690820152848201511515818301526060810183905290517fe4bfaa0071541e344013d2202571eff103bc71abd6e79e8a354945cfd884ca309181900360800190a15050508080610a0590611990565b91505061086d565b505050565b33600090815260046020526040902054600160e01b900460ff16610a485760405162461bcd60e51b815260040161017890611760565b600060068281548110610a6b57634e487b7160e01b600052603260045260246000fd5b6000918252602090912060049091020180549091506001600160a01b0316610aa55760405162461bcd60e51b815260040161017890611733565b60005b6002820154811015610b4a57336001600160a01b0316826002018281548110610ae157634e487b7160e01b600052603260045260246000fd5b6000918252602090912001546001600160a01b03161415610b385760405162461bcd60e51b8152602060048201526011602482015270165bdd48185b1c9958591e481d9bdd1959607a1b6044820152606401610178565b80610b4281611990565b915050610aa8565b506002018054600181018255600091825260209091200180546001600160a01b0319163317905550565b33600090815260046020526040812054600160e01b900460ff16610baa5760405162461bcd60e51b815260040161017890611760565b816000815111610c085760405162461bcd60e51b8152602060048201526024808201527f4174206c656173742031207368617265686f6c646572206973207265717569656044820152633932b21760e11b6064820152608401610178565b60005b8151811015610d35576000828281518110610c3657634e487b7160e01b600052603260045260246000fd5b60200260200101519050600081600001516001600160401b031611610cad5760405162461bcd60e51b815260206004820152602760248201527f5368617265686f6c646572206d7573742068617665206174206c6561737420316044820152661039b430b9329760c91b6064820152608401610178565b60208101516001600160a01b0316610d225760405162461bcd60e51b815260206004820152603260248201527f57616c6c657420616464726573732030206973206e6f7420616c6c6f776564206044820152713337b910309039b430b932b437b63232b91760711b6064820152608401610178565b5080610d2d81611990565b915050610c0b565b506006805460019081018083556000928352610d519190611979565b9050600060068281548110610d7657634e487b7160e01b600052603260045260246000fd5b60009182526020822060049091020180546001600160a01b031916331781559150604051908082528060200260200182016040528015610dc0578160200160208202803683370190505b508051610dd791600284019160209091019061147c565b5042600382015560005b8551811015610ea5576000868281518110610e0c57634e487b7160e01b600052603260045260246000fd5b6020908102919091018101516001808601805491820181556000908152839020825191018054938301516040909301511515600160e01b0260ff60e01b196001600160a01b03909416600160401b02600160401b600160e01b03196001600160401b0390941667ffffffffffffffff19909616959095179290921693909317919091161790555080610e9d81611990565b915050610de1565b50610eaf82610a12565b7fbf6c4e2a98cc952e89ea16bfa7fb4cba1b4ae9ac0e587b00b38ead6dcea1f82b81604051610ede919061183f565b60405180910390a1509392505050565b610f22604051806080016040528060006001600160a01b031681526020016060815260200160608152602001600081525090565b600060068381548110610f4557634e487b7160e01b600052603260045260246000fd5b6000918252602080832060408051608081018252600490940290910180546001600160a01b0316845260018101805483518186028101860190945280845294959194868501949192909184015b82821015610ff157600084815260209081902060408051606081018252918501546001600160401b0381168352600160401b81046001600160a01b031683850152600160e01b900460ff16151590820152825260019092019101610f92565b5050505081526020016002820180548060200260200160405190810160405280929190818152602001828054801561105257602002820191906000526020600020905b81546001600160a01b03168152600190910190602001808311611034575b50505091835250506003919091015460209091015280519091506001600160a01b03166110915760405162461bcd60e51b815260040161017890611733565b92915050565b600080805b836040015151811015611122576000846040015182815181106110cf57634e487b7160e01b600052603260045260246000fd5b6020908102919091018101516001600160a01b038116600090815260049092526040909120549091506001600160401b031661110b8185611922565b93505050808061111a90611990565b91505061109c565b50600254611b58906111368361271061195a565b611140919061193a565b119392505050565b60005b6005548110156112045760006005828154811061117857634e487b7160e01b600052603260045260246000fd5b60009182526020808320909101546001600160a01b03600160401b909104168083526004909152604090912080546001600160e81b03191690556005805491925090839081106111d857634e487b7160e01b600052603260045260246000fd5b600091825260209091200180546001600160e81b031916905550806111fc81611990565b91505061114b565b5060005b825181101561132657600083828151811061123357634e487b7160e01b600052603260045260246000fd5b60209081029190910181015180820180516001600160a01b0390811660009081526004909452604080852084518154855193870180511515600160e01b90810260ff60e01b19968816600160401b908102600160401b600160e01b03196001600160401b0397881667ffffffffffffffff1997881617811691909117891692909217909655600580546001810182559b5298517f036b6384b5eca791c62761152d0c79bb0604c104a5fb6f4eb0703f3154bb3db0909a018054985192511515909102919096169093029790911694169390931790931693909317909116179055508061131e81611990565b915050611208565b5061133082611343565b60025561133c826113ac565b6003555050565b600080805b83518110156113a55783818151811061137157634e487b7160e01b600052603260045260246000fd5b6020026020010151600001516001600160401b0316826113919190611922565b91508061139d81611990565b915050611348565b5092915050565b600080805b83518110156113a5578381815181106113da57634e487b7160e01b600052603260045260246000fd5b6020026020010151604001511561142e5783818151811061140b57634e487b7160e01b600052603260045260246000fd5b6020026020010151600001516001600160401b03168261142b9190611922565b91505b8061143881611990565b9150506113b1565b50805460008255906000526020600020908101906104ce91906114e1565b50805460008255906000526020600020908101906104ce9190611500565b8280548282559060005260206000209081019282156114d1579160200282015b828111156114d157825182546001600160a01b0319166001600160a01b0390911617825560209092019160019091019061149c565b506114dd929150611500565b5090565b5b808211156114dd5780546001600160e81b03191681556001016114e2565b5b808211156114dd5760008155600101611501565b60006020808385031215611527578182fd5b82356001600160401b038082111561153d578384fd5b818501915085601f830112611550578384fd5b813581811115611562576115626119c1565b61156f84858302016118f2565b818152848101908486016060808502870188018b101561158d578889fd5b8896505b848710156115fb5780828c0312156115a7578889fd5b6115b0816118f2565b823587811681146115bf578a8bfd5b8152828901356115ce816119d7565b818a01526040838101356115e1816119ec565b908201528452600196909601959287019290810190611591565b50909998505050505050505050565b60006020828403121561161b578081fd5b8151611626816119ec565b9392505050565b60006020828403121561163e578081fd5b8135611626816119d7565b60006020828403121561165a578081fd5b5035919050565b600060208284031215611672578081fd5b5051919050565b6000815480845260208085019450838352808320835b838110156116b45781546001600160a01b03168752958201956001918201910161168f565b509495945050505050565b6000815180845260208085019450808401835b838110156116b45761170d87835180516001600160401b031682526020808201516001600160a01b0316908301526040908101511515910152565b60609690960195908201906001016116d2565b60006020825261162660208301846116bf565b6020808252601390820152722ab735b737bb90383937b837b9b0b61034b21760691b604082015260600190565b6020808252602b908201527f556e617574686f72697a65642e20596f75206861766520746f2062652061207360408201526a3430b932b437b63232b91760a91b606082015260800190565b602080825282516001600160a01b0316828201528281015160806040840152600091906117db60a08501826116bf565b6040860151858203601f190160608701528051808352908401925084918401905b808310156118275783516001600160a01b0316825260208201915084840193506001830192506117fc565b50606087015160808701528094505050505092915050565b6000602080835260a0830160018060a01b0380865416838601526001808701604060808189015284825480875260c08a01915083895287892096508893505b808410156118bc5786546001600160401b038116835280841c87168984015260e01c60ff16151583830152958401959284019260609091019061187e565b50888103601f190160608a01526118d68160028c01611679565b9650505050505050600384015460808401528091505092915050565b604051601f8201601f191681016001600160401b038111828210171561191a5761191a6119c1565b604052919050565b60008219821115611935576119356119ab565b500190565b60008261195557634e487b7160e01b81526012600452602481fd5b500490565b6000816000190483118215151615611974576119746119ab565b500290565b60008282101561198b5761198b6119ab565b500390565b60006000198214156119a4576119a46119ab565b5060010190565b634e487b7160e01b600052601160045260246000fd5b634e487b7160e01b600052604160045260246000fd5b6001600160a01b03811681146104ce57600080fd5b80151581146104ce57600080fdfea26469706673582212200e2b074fd563ed542f9270287aa5585dffb55a3208846534a01939ba64abc9f464736f6c63430008020033",
    "sourcePath": "c:/Users/Matthieu/Desktop/levyathan/contracts/TokenSharing.sol",
    "compiler": {
        "name": "solc",
        "version": "0.8.2+commit.661d1103"
    },
    "functionHashes": {
        "applyProposal(uint256)": "1e390607",
        "approveProposal(uint256)": "98951b56",
        "createProposal((uint64,address,bool)[])": "a9c225fe",
        "deleteProposal(uint256)": "8259d553",
        "distributeAllTokens()": "2917f66b",
        "distributeToken(address)": "86d74037",
        "getProposal(uint256)": "c7f758a8",
        "getShareholders()": "41ca641e"
    },
    "gasEstimates": {
        "creation": {
            "codeDepositCost": "1340800",
            "executionCost": "infinite",
            "totalCost": "infinite"
        },
        "external": {
            "applyProposal(uint256)": "infinite",
            "approveProposal(uint256)": "infinite",
            "createProposal((uint64,address,bool)[])": "infinite",
            "deleteProposal(uint256)": "infinite",
            "distributeAllTokens()": "infinite",
            "distributeToken(address)": "infinite",
            "getProposal(uint256)": "infinite",
            "getShareholders()": "infinite"
        },
        "internal": {
            "calculateTotalShares(struct Shareholder memory[] memory)": "infinite",
            "calculateTotalVotingShares(struct Shareholder memory[] memory)": "infinite",
            "isFavorable(struct Proposal memory)": "infinite",
            "replaceShareholders(struct Shareholder memory[] memory,uint256)": "infinite"
        }
    }
}